{
  "_format": "hh-sol-artifact-1",
  "contractName": "CinemaTicket",
  "sourceName": "contracts/CinemaTicket.sol",
  "abi": [
    {
      "inputs": [
        {
          "internalType": "string",
          "name": "_name",
          "type": "string"
        },
        {
          "internalType": "string",
          "name": "_symbol",
          "type": "string"
        }
      ],
      "stateMutability": "nonpayable",
      "type": "constructor"
    },
    {
      "anonymous": false,
      "inputs": [
        {
          "indexed": true,
          "internalType": "address",
          "name": "owner",
          "type": "address"
        },
        {
          "indexed": true,
          "internalType": "address",
          "name": "approved",
          "type": "address"
        },
        {
          "indexed": true,
          "internalType": "uint256",
          "name": "tokenId",
          "type": "uint256"
        }
      ],
      "name": "Approval",
      "type": "event"
    },
    {
      "anonymous": false,
      "inputs": [
        {
          "indexed": true,
          "internalType": "address",
          "name": "owner",
          "type": "address"
        },
        {
          "indexed": true,
          "internalType": "address",
          "name": "operator",
          "type": "address"
        },
        {
          "indexed": false,
          "internalType": "bool",
          "name": "approved",
          "type": "bool"
        }
      ],
      "name": "ApprovalForAll",
      "type": "event"
    },
    {
      "anonymous": false,
      "inputs": [
        {
          "indexed": true,
          "internalType": "address",
          "name": "from",
          "type": "address"
        },
        {
          "indexed": true,
          "internalType": "address",
          "name": "to",
          "type": "address"
        },
        {
          "indexed": true,
          "internalType": "uint256",
          "name": "tokenId",
          "type": "uint256"
        }
      ],
      "name": "Transfer",
      "type": "event"
    },
    {
      "inputs": [
        {
          "internalType": "address",
          "name": "to",
          "type": "address"
        },
        {
          "internalType": "uint256",
          "name": "tokenId",
          "type": "uint256"
        }
      ],
      "name": "approve",
      "outputs": [],
      "stateMutability": "nonpayable",
      "type": "function"
    },
    {
      "inputs": [
        {
          "internalType": "address",
          "name": "owner",
          "type": "address"
        }
      ],
      "name": "balanceOf",
      "outputs": [
        {
          "internalType": "uint256",
          "name": "",
          "type": "uint256"
        }
      ],
      "stateMutability": "view",
      "type": "function"
    },
    {
      "inputs": [
        {
          "internalType": "uint256",
          "name": "tokenId",
          "type": "uint256"
        }
      ],
      "name": "getApproved",
      "outputs": [
        {
          "internalType": "address",
          "name": "",
          "type": "address"
        }
      ],
      "stateMutability": "view",
      "type": "function"
    },
    {
      "inputs": [
        {
          "internalType": "uint256",
          "name": "_id",
          "type": "uint256"
        }
      ],
      "name": "getOccasion",
      "outputs": [
        {
          "components": [
            {
              "internalType": "uint256",
              "name": "id",
              "type": "uint256"
            },
            {
              "internalType": "string",
              "name": "name",
              "type": "string"
            },
            {
              "internalType": "uint256",
              "name": "cost",
              "type": "uint256"
            },
            {
              "internalType": "uint256",
              "name": "tickets",
              "type": "uint256"
            },
            {
              "internalType": "uint256",
              "name": "maxTickets",
              "type": "uint256"
            },
            {
              "internalType": "string",
              "name": "date",
              "type": "string"
            },
            {
              "internalType": "string",
              "name": "time",
              "type": "string"
            },
            {
              "internalType": "string",
              "name": "location",
              "type": "string"
            }
          ],
          "internalType": "struct CinemaTicket.Occasion",
          "name": "",
          "type": "tuple"
        }
      ],
      "stateMutability": "view",
      "type": "function"
    },
    {
      "inputs": [
        {
          "internalType": "uint256",
          "name": "_id",
          "type": "uint256"
        }
      ],
      "name": "getSeatsTaken",
      "outputs": [
        {
          "internalType": "uint256[]",
          "name": "",
          "type": "uint256[]"
        }
      ],
      "stateMutability": "view",
      "type": "function"
    },
    {
      "inputs": [
        {
          "internalType": "uint256",
          "name": "",
          "type": "uint256"
        },
        {
          "internalType": "address",
          "name": "",
          "type": "address"
        }
      ],
      "name": "hasBought",
      "outputs": [
        {
          "internalType": "bool",
          "name": "",
          "type": "bool"
        }
      ],
      "stateMutability": "view",
      "type": "function"
    },
    {
      "inputs": [
        {
          "internalType": "address",
          "name": "owner",
          "type": "address"
        },
        {
          "internalType": "address",
          "name": "operator",
          "type": "address"
        }
      ],
      "name": "isApprovedForAll",
      "outputs": [
        {
          "internalType": "bool",
          "name": "",
          "type": "bool"
        }
      ],
      "stateMutability": "view",
      "type": "function"
    },
    {
      "inputs": [
        {
          "internalType": "string",
          "name": "_name",
          "type": "string"
        },
        {
          "internalType": "uint256",
          "name": "_cost",
          "type": "uint256"
        },
        {
          "internalType": "uint256",
          "name": "_maxTickets",
          "type": "uint256"
        },
        {
          "internalType": "string",
          "name": "_date",
          "type": "string"
        },
        {
          "internalType": "string",
          "name": "_time",
          "type": "string"
        },
        {
          "internalType": "string",
          "name": "_location",
          "type": "string"
        }
      ],
      "name": "list",
      "outputs": [],
      "stateMutability": "nonpayable",
      "type": "function"
    },
    {
      "inputs": [
        {
          "internalType": "uint256",
          "name": "_id",
          "type": "uint256"
        },
        {
          "internalType": "uint256",
          "name": "_seat",
          "type": "uint256"
        }
      ],
      "name": "mint",
      "outputs": [],
      "stateMutability": "payable",
      "type": "function"
    },
    {
      "inputs": [],
      "name": "name",
      "outputs": [
        {
          "internalType": "string",
          "name": "",
          "type": "string"
        }
      ],
      "stateMutability": "view",
      "type": "function"
    },
    {
      "inputs": [],
      "name": "owner",
      "outputs": [
        {
          "internalType": "address",
          "name": "",
          "type": "address"
        }
      ],
      "stateMutability": "view",
      "type": "function"
    },
    {
      "inputs": [
        {
          "internalType": "uint256",
          "name": "tokenId",
          "type": "uint256"
        }
      ],
      "name": "ownerOf",
      "outputs": [
        {
          "internalType": "address",
          "name": "",
          "type": "address"
        }
      ],
      "stateMutability": "view",
      "type": "function"
    },
    {
      "inputs": [
        {
          "internalType": "address",
          "name": "from",
          "type": "address"
        },
        {
          "internalType": "address",
          "name": "to",
          "type": "address"
        },
        {
          "internalType": "uint256",
          "name": "tokenId",
          "type": "uint256"
        }
      ],
      "name": "safeTransferFrom",
      "outputs": [],
      "stateMutability": "nonpayable",
      "type": "function"
    },
    {
      "inputs": [
        {
          "internalType": "address",
          "name": "from",
          "type": "address"
        },
        {
          "internalType": "address",
          "name": "to",
          "type": "address"
        },
        {
          "internalType": "uint256",
          "name": "tokenId",
          "type": "uint256"
        },
        {
          "internalType": "bytes",
          "name": "data",
          "type": "bytes"
        }
      ],
      "name": "safeTransferFrom",
      "outputs": [],
      "stateMutability": "nonpayable",
      "type": "function"
    },
    {
      "inputs": [
        {
          "internalType": "uint256",
          "name": "",
          "type": "uint256"
        },
        {
          "internalType": "uint256",
          "name": "",
          "type": "uint256"
        }
      ],
      "name": "seatTaken",
      "outputs": [
        {
          "internalType": "address",
          "name": "",
          "type": "address"
        }
      ],
      "stateMutability": "view",
      "type": "function"
    },
    {
      "inputs": [
        {
          "internalType": "address",
          "name": "operator",
          "type": "address"
        },
        {
          "internalType": "bool",
          "name": "approved",
          "type": "bool"
        }
      ],
      "name": "setApprovalForAll",
      "outputs": [],
      "stateMutability": "nonpayable",
      "type": "function"
    },
    {
      "inputs": [
        {
          "internalType": "bytes4",
          "name": "interfaceId",
          "type": "bytes4"
        }
      ],
      "name": "supportsInterface",
      "outputs": [
        {
          "internalType": "bool",
          "name": "",
          "type": "bool"
        }
      ],
      "stateMutability": "view",
      "type": "function"
    },
    {
      "inputs": [],
      "name": "symbol",
      "outputs": [
        {
          "internalType": "string",
          "name": "",
          "type": "string"
        }
      ],
      "stateMutability": "view",
      "type": "function"
    },
    {
      "inputs": [
        {
          "internalType": "uint256",
          "name": "tokenId",
          "type": "uint256"
        }
      ],
      "name": "tokenURI",
      "outputs": [
        {
          "internalType": "string",
          "name": "",
          "type": "string"
        }
      ],
      "stateMutability": "view",
      "type": "function"
    },
    {
      "inputs": [],
      "name": "totalOccasions",
      "outputs": [
        {
          "internalType": "uint256",
          "name": "",
          "type": "uint256"
        }
      ],
      "stateMutability": "view",
      "type": "function"
    },
    {
      "inputs": [],
      "name": "totalSupply",
      "outputs": [
        {
          "internalType": "uint256",
          "name": "",
          "type": "uint256"
        }
      ],
      "stateMutability": "view",
      "type": "function"
    },
    {
      "inputs": [
        {
          "internalType": "address",
          "name": "from",
          "type": "address"
        },
        {
          "internalType": "address",
          "name": "to",
          "type": "address"
        },
        {
          "internalType": "uint256",
          "name": "tokenId",
          "type": "uint256"
        }
      ],
      "name": "transferFrom",
      "outputs": [],
      "stateMutability": "nonpayable",
      "type": "function"
    },
    {
      "inputs": [],
      "name": "withdraw",
      "outputs": [],
      "stateMutability": "nonpayable",
      "type": "function"
    }
  ],
  "bytecode": "0x60806040523480156200001157600080fd5b506040516200219938038062002199833981016040819052620000349162000136565b818160006200004483826200022f565b5060016200005382826200022f565b5050600680546001600160a01b0319163317905550620002fb915050565b634e487b7160e01b600052604160045260246000fd5b600082601f8301126200009957600080fd5b81516001600160401b0380821115620000b657620000b662000071565b604051601f8301601f19908116603f01168101908282118183101715620000e157620000e162000071565b81604052838152602092508683858801011115620000fe57600080fd5b600091505b8382101562000122578582018301518183018401529082019062000103565b600093810190920192909252949350505050565b600080604083850312156200014a57600080fd5b82516001600160401b03808211156200016257600080fd5b620001708683870162000087565b935060208501519150808211156200018757600080fd5b50620001968582860162000087565b9150509250929050565b600181811c90821680620001b557607f821691505b602082108103620001d657634e487b7160e01b600052602260045260246000fd5b50919050565b601f8211156200022a57600081815260208120601f850160051c81016020861015620002055750805b601f850160051c820191505b81811015620002265782815560010162000211565b5050505b505050565b81516001600160401b038111156200024b576200024b62000071565b62000263816200025c8454620001a0565b84620001dc565b602080601f8311600181146200029b5760008415620002825750858301515b600019600386901b1c1916600185901b17855562000226565b600085815260208120601f198616915b82811015620002cc57888601518255948401946001909101908401620002ab565b5085821015620002eb5787850151600019600388901b60f8161c191681555b5050505050600190811b01905550565b611e8e806200030b6000396000f3fe6080604052600436106101405760003560e01c806370a08231116100b65780639cb04aef1161006f5780639cb04aef14610387578063a22cb465146103c2578063af296da1146103e2578063b88d4fde14610423578063c87b56dd14610443578063e985e9c51461046357600080fd5b806370a08231146102cf57806374bc8656146102ef5780638da5cb5b1461031c578063953865c11461033c57806395d89b41146103525780639a382f0f1461036757600080fd5b806318160ddd1161010857806318160ddd146102235780631b2ef1ca1461024757806323b872dd1461025a5780633ccfd60b1461027a57806342842e0e1461028f5780636352211e146102af57600080fd5b806301ffc9a71461014557806306fdde031461017a578063081812fc1461019c578063095ea7b3146101d45780630ef7ec74146101f6575b600080fd5b34801561015157600080fd5b506101656101603660046116ad565b610483565b60405190151581526020015b60405180910390f35b34801561018657600080fd5b5061018f6104d5565b604051610171919061171a565b3480156101a857600080fd5b506101bc6101b736600461172d565b610567565b6040516001600160a01b039091168152602001610171565b3480156101e057600080fd5b506101f46101ef366004611762565b61058e565b005b34801561020257600080fd5b5061021661021136600461172d565b6106a8565b604051610171919061178c565b34801561022f57600080fd5b5061023960085481565b604051908152602001610171565b6101f46102553660046117d0565b61070a565b34801561026657600080fd5b506101f46102753660046117f2565b610840565b34801561028657600080fd5b506101f4610871565b34801561029b57600080fd5b506101f46102aa3660046117f2565b6108eb565b3480156102bb57600080fd5b506101bc6102ca36600461172d565b610906565b3480156102db57600080fd5b506102396102ea36600461182e565b610966565b3480156102fb57600080fd5b5061030f61030a36600461172d565b6109ec565b6040516101719190611849565b34801561032857600080fd5b506006546101bc906001600160a01b031681565b34801561034857600080fd5b5061023960075481565b34801561035e57600080fd5b5061018f610cca565b34801561037357600080fd5b506101f461038236600461199e565b610cd9565b34801561039357600080fd5b506101656103a2366004611a5d565b600a60209081526000928352604080842090915290825290205460ff1681565b3480156103ce57600080fd5b506101f46103dd366004611a89565b610ddd565b3480156103ee57600080fd5b506101bc6103fd3660046117d0565b600b6020908152600092835260408084209091529082529020546001600160a01b031681565b34801561042f57600080fd5b506101f461043e366004611ac5565b610de8565b34801561044f57600080fd5b5061018f61045e36600461172d565b610e20565b34801561046f57600080fd5b5061016561047e366004611b41565b610e94565b60006001600160e01b031982166380ac58cd60e01b14806104b457506001600160e01b03198216635b5e139f60e01b145b806104cf57506301ffc9a760e01b6001600160e01b03198316145b92915050565b6060600080546104e490611b6b565b80601f016020809104026020016040519081016040528092919081815260200182805461051090611b6b565b801561055d5780601f106105325761010080835404028352916020019161055d565b820191906000526020600020905b81548152906001019060200180831161054057829003601f168201915b5050505050905090565b600061057282610ec2565b506000908152600460205260409020546001600160a01b031690565b600061059982610906565b9050806001600160a01b0316836001600160a01b03160361060b5760405162461bcd60e51b815260206004820152602160248201527f4552433732313a20617070726f76616c20746f2063757272656e74206f776e656044820152603960f91b60648201526084015b60405180910390fd5b336001600160a01b038216148061062757506106278133610e94565b6106995760405162461bcd60e51b815260206004820152603d60248201527f4552433732313a20617070726f76652063616c6c6572206973206e6f7420746f60448201527f6b656e206f776e6572206f7220617070726f76656420666f7220616c6c0000006064820152608401610602565b6106a38383610f21565b505050565b6000818152600c60209081526040918290208054835181840281018401909452808452606093928301828280156106fe57602002820191906000526020600020905b8154815260200190600101908083116106ea575b50505050509050919050565b8160000361071757600080fd5b60075482111561072657600080fd5b60008281526009602052604090206002015434101561074457600080fd5b6000828152600b602090815260408083208484529091529020546001600160a01b03161561077157600080fd5b60008281526009602052604090206004015481111561078f57600080fd5b60008281526009602052604081206003018054600192906107b1908490611bbb565b90915550506000828152600a6020908152604080832033808552908352818420805460ff19166001908117909155868552600b8452828520868652845282852080546001600160a01b031916909217909155858452600c835290832080549182018155835290822001829055600880549161082b83611bce565b919050555061083c33600854610f8f565b5050565b61084a3382610fa9565b6108665760405162461bcd60e51b815260040161060290611be7565b6106a3838383611008565b6006546001600160a01b0316331461088857600080fd5b6006546040516000916001600160a01b03169047908381818185875af1925050503d80600081146108d5576040519150601f19603f3d011682016040523d82523d6000602084013e6108da565b606091505b50509050806108e857600080fd5b50565b6106a383838360405180602001604052806000815250610de8565b6000818152600260205260408120546001600160a01b0316806104cf5760405162461bcd60e51b8152602060048201526018602482015277115490cdcc8c4e881a5b9d985b1a59081d1bdad95b88125160421b6044820152606401610602565b60006001600160a01b0382166109d05760405162461bcd60e51b815260206004820152602960248201527f4552433732313a2061646472657373207a65726f206973206e6f7420612076616044820152683634b21037bbb732b960b91b6064820152608401610602565b506001600160a01b031660009081526003602052604090205490565b610a3460405180610100016040528060008152602001606081526020016000815260200160008152602001600081526020016060815260200160608152602001606081525090565b600960008381526020019081526020016000206040518061010001604052908160008201548152602001600182018054610a6d90611b6b565b80601f0160208091040260200160405190810160405280929190818152602001828054610a9990611b6b565b8015610ae65780601f10610abb57610100808354040283529160200191610ae6565b820191906000526020600020905b815481529060010190602001808311610ac957829003601f168201915b50505050508152602001600282015481526020016003820154815260200160048201548152602001600582018054610b1d90611b6b565b80601f0160208091040260200160405190810160405280929190818152602001828054610b4990611b6b565b8015610b965780601f10610b6b57610100808354040283529160200191610b96565b820191906000526020600020905b815481529060010190602001808311610b7957829003601f168201915b50505050508152602001600682018054610baf90611b6b565b80601f0160208091040260200160405190810160405280929190818152602001828054610bdb90611b6b565b8015610c285780601f10610bfd57610100808354040283529160200191610c28565b820191906000526020600020905b815481529060010190602001808311610c0b57829003601f168201915b50505050508152602001600782018054610c4190611b6b565b80601f0160208091040260200160405190810160405280929190818152602001828054610c6d90611b6b565b8015610cba5780601f10610c8f57610100808354040283529160200191610cba565b820191906000526020600020905b815481529060010190602001808311610c9d57829003601f168201915b5050505050815250509050919050565b6060600180546104e490611b6b565b6006546001600160a01b03163314610cf057600080fd5b60078054906000610d0083611bce565b9190505550604051806101000160405280600754815260200187815260200186815260200185815260200185815260200184815260200183815260200182815250600960006007548152602001908152602001600020600082015181600001556020820151816001019081610d759190611c82565b5060408201516002820155606082015160038201556080820151600482015560a08201516005820190610da89082611c82565b5060c08201516006820190610dbd9082611c82565b5060e08201516007820190610dd29082611c82565b505050505050505050565b61083c33838361116c565b610df23383610fa9565b610e0e5760405162461bcd60e51b815260040161060290611be7565b610e1a8484848461123a565b50505050565b6060610e2b82610ec2565b6000610e4260408051602081019091526000815290565b90506000815111610e625760405180602001604052806000815250610e8d565b80610e6c8461126d565b604051602001610e7d929190611d42565b6040516020818303038152906040525b9392505050565b6001600160a01b03918216600090815260056020908152604080832093909416825291909152205460ff1690565b6000818152600260205260409020546001600160a01b03166108e85760405162461bcd60e51b8152602060048201526018602482015277115490cdcc8c4e881a5b9d985b1a59081d1bdad95b88125160421b6044820152606401610602565b600081815260046020526040902080546001600160a01b0319166001600160a01b0384169081179091558190610f5682610906565b6001600160a01b03167f8c5be1e5ebec7d5bd14f71427d1e84f3dd0314c0f7b2291e5b200ac8c7c3b92560405160405180910390a45050565b61083c828260405180602001604052806000815250611300565b600080610fb583610906565b9050806001600160a01b0316846001600160a01b03161480610fdc5750610fdc8185610e94565b806110005750836001600160a01b0316610ff584610567565b6001600160a01b0316145b949350505050565b826001600160a01b031661101b82610906565b6001600160a01b0316146110415760405162461bcd60e51b815260040161060290611d71565b6001600160a01b0382166110a35760405162461bcd60e51b8152602060048201526024808201527f4552433732313a207472616e7366657220746f20746865207a65726f206164646044820152637265737360e01b6064820152608401610602565b826001600160a01b03166110b682610906565b6001600160a01b0316146110dc5760405162461bcd60e51b815260040161060290611d71565b600081815260046020908152604080832080546001600160a01b03199081169091556001600160a01b0387811680865260038552838620805460001901905590871680865283862080546001019055868652600290945282852080549092168417909155905184937fddf252ad1be2c89b69c2b068fc378daa952ba7f163c4a11628f55a4df523b3ef91a4505050565b816001600160a01b0316836001600160a01b0316036111cd5760405162461bcd60e51b815260206004820152601960248201527f4552433732313a20617070726f766520746f2063616c6c6572000000000000006044820152606401610602565b6001600160a01b03838116600081815260056020908152604080832094871680845294825291829020805460ff191686151590811790915591519182527f17307eab39ab6107e8899845ad3d59bd9653f200f220920489ca2b5937696c31910160405180910390a3505050565b611245848484611008565b61125184848484611333565b610e1a5760405162461bcd60e51b815260040161060290611db6565b6060600061127a83611434565b600101905060008167ffffffffffffffff81111561129a5761129a6118f2565b6040519080825280601f01601f1916602001820160405280156112c4576020820181803683370190505b5090508181016020015b600019016f181899199a1a9b1b9c1cb0b131b232b360811b600a86061a8153600a85049450846112ce57509392505050565b61130a838361150c565b6113176000848484611333565b6106a35760405162461bcd60e51b815260040161060290611db6565b60006001600160a01b0384163b1561142957604051630a85bd0160e11b81526001600160a01b0385169063150b7a0290611377903390899088908890600401611e08565b6020604051808303816000875af19250505080156113b2575060408051601f3d908101601f191682019092526113af91810190611e3b565b60015b61140f573d8080156113e0576040519150601f19603f3d011682016040523d82523d6000602084013e6113e5565b606091505b5080516000036114075760405162461bcd60e51b815260040161060290611db6565b805181602001fd5b6001600160e01b031916630a85bd0160e11b149050611000565b506001949350505050565b60008072184f03e93ff9f4daa797ed6e38ed64bf6a1f0160401b83106114735772184f03e93ff9f4daa797ed6e38ed64bf6a1f0160401b830492506040015b6d04ee2d6d415b85acef8100000000831061149f576d04ee2d6d415b85acef8100000000830492506020015b662386f26fc1000083106114bd57662386f26fc10000830492506010015b6305f5e10083106114d5576305f5e100830492506008015b61271083106114e957612710830492506004015b606483106114fb576064830492506002015b600a83106104cf5760010192915050565b6001600160a01b0382166115625760405162461bcd60e51b815260206004820181905260248201527f4552433732313a206d696e7420746f20746865207a65726f20616464726573736044820152606401610602565b6000818152600260205260409020546001600160a01b0316156115c75760405162461bcd60e51b815260206004820152601c60248201527f4552433732313a20746f6b656e20616c7265616479206d696e746564000000006044820152606401610602565b6000818152600260205260409020546001600160a01b03161561162c5760405162461bcd60e51b815260206004820152601c60248201527f4552433732313a20746f6b656e20616c7265616479206d696e746564000000006044820152606401610602565b6001600160a01b038216600081815260036020908152604080832080546001019055848352600290915280822080546001600160a01b0319168417905551839291907fddf252ad1be2c89b69c2b068fc378daa952ba7f163c4a11628f55a4df523b3ef908290a45050565b6001600160e01b0319811681146108e857600080fd5b6000602082840312156116bf57600080fd5b8135610e8d81611697565b60005b838110156116e55781810151838201526020016116cd565b50506000910152565b600081518084526117068160208601602086016116ca565b601f01601f19169290920160200192915050565b602081526000610e8d60208301846116ee565b60006020828403121561173f57600080fd5b5035919050565b80356001600160a01b038116811461175d57600080fd5b919050565b6000806040838503121561177557600080fd5b61177e83611746565b946020939093013593505050565b6020808252825182820181905260009190848201906040850190845b818110156117c4578351835292840192918401916001016117a8565b50909695505050505050565b600080604083850312156117e357600080fd5b50508035926020909101359150565b60008060006060848603121561180757600080fd5b61181084611746565b925061181e60208501611746565b9150604084013590509250925092565b60006020828403121561184057600080fd5b610e8d82611746565b6020815281516020820152600060208301516101008060408501526118726101208501836116ee565b91506040850151606085015260608501516080850152608085015160a085015260a0850151601f19808685030160c08701526118ae84836116ee565b935060c08701519150808685030160e08701526118cb84836116ee565b935060e08701519150808685030183870152506118e883826116ee565b9695505050505050565b634e487b7160e01b600052604160045260246000fd5b600067ffffffffffffffff80841115611923576119236118f2565b604051601f8501601f19908116603f0116810190828211818310171561194b5761194b6118f2565b8160405280935085815286868601111561196457600080fd5b858560208301376000602087830101525050509392505050565b600082601f83011261198f57600080fd5b610e8d83833560208501611908565b60008060008060008060c087890312156119b757600080fd5b863567ffffffffffffffff808211156119cf57600080fd5b6119db8a838b0161197e565b9750602089013596506040890135955060608901359150808211156119ff57600080fd5b611a0b8a838b0161197e565b94506080890135915080821115611a2157600080fd5b611a2d8a838b0161197e565b935060a0890135915080821115611a4357600080fd5b50611a5089828a0161197e565b9150509295509295509295565b60008060408385031215611a7057600080fd5b82359150611a8060208401611746565b90509250929050565b60008060408385031215611a9c57600080fd5b611aa583611746565b915060208301358015158114611aba57600080fd5b809150509250929050565b60008060008060808587031215611adb57600080fd5b611ae485611746565b9350611af260208601611746565b925060408501359150606085013567ffffffffffffffff811115611b1557600080fd5b8501601f81018713611b2657600080fd5b611b3587823560208401611908565b91505092959194509250565b60008060408385031215611b5457600080fd5b611b5d83611746565b9150611a8060208401611746565b600181811c90821680611b7f57607f821691505b602082108103611b9f57634e487b7160e01b600052602260045260246000fd5b50919050565b634e487b7160e01b600052601160045260246000fd5b818103818111156104cf576104cf611ba5565b600060018201611be057611be0611ba5565b5060010190565b6020808252602d908201527f4552433732313a2063616c6c6572206973206e6f7420746f6b656e206f776e6560408201526c1c881bdc88185c1c1c9bdd9959609a1b606082015260800190565b601f8211156106a357600081815260208120601f850160051c81016020861015611c5b5750805b601f850160051c820191505b81811015611c7a57828155600101611c67565b505050505050565b815167ffffffffffffffff811115611c9c57611c9c6118f2565b611cb081611caa8454611b6b565b84611c34565b602080601f831160018114611ce55760008415611ccd5750858301515b600019600386901b1c1916600185901b178555611c7a565b600085815260208120601f198616915b82811015611d1457888601518255948401946001909101908401611cf5565b5085821015611d325787850151600019600388901b60f8161c191681555b5050505050600190811b01905550565b60008351611d548184602088016116ca565b835190830190611d688183602088016116ca565b01949350505050565b60208082526025908201527f4552433732313a207472616e736665722066726f6d20696e636f72726563742060408201526437bbb732b960d91b606082015260800190565b60208082526032908201527f4552433732313a207472616e7366657220746f206e6f6e20455243373231526560408201527131b2b4bb32b91034b6b83632b6b2b73a32b960711b606082015260800190565b6001600160a01b03858116825284166020820152604081018390526080606082018190526000906118e8908301846116ee565b600060208284031215611e4d57600080fd5b8151610e8d8161169756fea26469706673582212207917678ecd07521f5d7532734ea109cb4ffa6b2978f57f965f0a9ba4abd948b764736f6c63430008110033",
  "linkReferences": {},
  "deployedLinkReferences": {}
}